{
  "_format": "hh-sol-artifact-1",
  "contractName": "Marketplace",
  "sourceName": "contracts/Marketplace.sol",
  "abi": [
    {
      "inputs": [],
      "stateMutability": "nonpayable",
      "type": "constructor"
    },
    {
      "anonymous": false,
      "inputs": [
        {
          "indexed": false,
          "internalType": "uint256",
          "name": "id",
          "type": "uint256"
        },
        {
          "indexed": false,
          "internalType": "string",
          "name": "name",
          "type": "string"
        },
        {
          "indexed": false,
          "internalType": "uint256",
          "name": "price",
          "type": "uint256"
        },
        {
          "indexed": false,
          "internalType": "address",
          "name": "owner",
          "type": "address"
        },
        {
          "indexed": false,
          "internalType": "bool",
          "name": "purchased",
          "type": "bool"
        }
      ],
      "name": "ProductCreated",
      "type": "event"
    },
    {
      "anonymous": false,
      "inputs": [
        {
          "indexed": false,
          "internalType": "uint256",
          "name": "id",
          "type": "uint256"
        },
        {
          "indexed": false,
          "internalType": "string",
          "name": "name",
          "type": "string"
        },
        {
          "indexed": false,
          "internalType": "uint256",
          "name": "price",
          "type": "uint256"
        },
        {
          "indexed": false,
          "internalType": "address",
          "name": "owner",
          "type": "address"
        },
        {
          "indexed": false,
          "internalType": "bool",
          "name": "purchased",
          "type": "bool"
        }
      ],
      "name": "ProductPurchased",
      "type": "event"
    },
    {
      "inputs": [
        {
          "internalType": "string",
          "name": "_name",
          "type": "string"
        },
        {
          "internalType": "uint256",
          "name": "_price",
          "type": "uint256"
        }
      ],
      "name": "createProduct",
      "outputs": [],
      "stateMutability": "nonpayable",
      "type": "function"
    },
    {
      "inputs": [],
      "name": "name",
      "outputs": [
        {
          "internalType": "string",
          "name": "",
          "type": "string"
        }
      ],
      "stateMutability": "view",
      "type": "function"
    },
    {
      "inputs": [],
      "name": "productCount",
      "outputs": [
        {
          "internalType": "uint256",
          "name": "",
          "type": "uint256"
        }
      ],
      "stateMutability": "view",
      "type": "function"
    },
    {
      "inputs": [
        {
          "internalType": "uint256",
          "name": "",
          "type": "uint256"
        }
      ],
      "name": "products",
      "outputs": [
        {
          "internalType": "uint256",
          "name": "id",
          "type": "uint256"
        },
        {
          "internalType": "string",
          "name": "name",
          "type": "string"
        },
        {
          "internalType": "uint256",
          "name": "price",
          "type": "uint256"
        },
        {
          "internalType": "address",
          "name": "owner",
          "type": "address"
        },
        {
          "internalType": "bool",
          "name": "purchased",
          "type": "bool"
        }
      ],
      "stateMutability": "view",
      "type": "function"
    },
    {
      "inputs": [
        {
          "internalType": "uint256",
          "name": "_id",
          "type": "uint256"
        }
      ],
      "name": "purchaseProduct",
      "outputs": [],
      "stateMutability": "payable",
      "type": "function"
    },
    {
      "inputs": [],
      "name": "test",
      "outputs": [],
      "stateMutability": "view",
      "type": "function"
    }
  ],
  "bytecode": "0x608060405260006001553480156200001657600080fd5b506040518060400160405280601e81526020017f496e697469616c20636f6e74727563746f72206e616d652063616c6c6564000081525060009080519060200190620000649291906200006b565b5062000180565b82805462000079906200011b565b90600052602060002090601f0160209004810192826200009d5760008555620000e9565b82601f10620000b857805160ff1916838001178555620000e9565b82800160010185558215620000e9579182015b82811115620000e8578251825591602001919060010190620000cb565b5b509050620000f89190620000fc565b5090565b5b8082111562000117576000816000905550600101620000fd565b5090565b600060028204905060018216806200013457607f821691505b602082108114156200014b576200014a62000151565b5b50919050565b7f4e487b7100000000000000000000000000000000000000000000000000000000600052602260045260246000fd5b61116080620001906000396000f3fe6080604052600436106100555760003560e01c806306fdde031461005a57806338e76a03146100855780637acc0b20146100a1578063e0f6ef87146100e2578063e9300c6c1461010d578063f8a8fd6d14610136575b600080fd5b34801561006657600080fd5b5061006f61014d565b60405161007c9190610d86565b60405180910390f35b61009f600480360381019061009a9190610cd4565b6101db565b005b3480156100ad57600080fd5b506100c860048036038101906100c39190610cd4565b61060e565b6040516100d9959493929190610e4a565b60405180910390f35b3480156100ee57600080fd5b506100f76106f9565b6040516101049190610e2f565b60405180910390f35b34801561011957600080fd5b50610134600480360381019061012f9190610c80565b6106ff565b005b34801561014257600080fd5b5061014b610926565b005b6000805461015a90610fa0565b80601f016020809104026020016040519081016040528092919081815260200182805461018690610fa0565b80156101d35780601f106101a8576101008083540402835291602001916101d3565b820191906000526020600020905b8154815290600101906020018083116101b657829003601f168201915b505050505081565b6102196040518060400160405280601881526020017f70757263686173652070726f647563742066756e632e2e2e0000000000000000815250610966565b6102586040518060400160405280600b81526020017f66756e632069643a202573000000000000000000000000000000000000000000815250826109ff565b6000600260008381526020019081526020016000206040518060a00160405290816000820154815260200160018201805461029290610fa0565b80601f01602080910402602001604051908101604052809291908181526020018280546102be90610fa0565b801561030b5780601f106102e05761010080835404028352916020019161030b565b820191906000526020600020905b8154815290600101906020018083116102ee57829003601f168201915b50505050508152602001600282015481526020016003820160009054906101000a900473ffffffffffffffffffffffffffffffffffffffff1673ffffffffffffffffffffffffffffffffffffffff1673ffffffffffffffffffffffffffffffffffffffff1681526020016003820160149054906101000a900460ff16151515158152505090506103d46040518060400160405280601081526020017f6e616d6520696e2066756e633a202573000000000000000000000000000000008152508260200151610a9b565b600081606001519050600082600001511180156103f75750600154826000015111155b61040057600080fd5b816040015134101561041157600080fd5b3373ffffffffffffffffffffffffffffffffffffffff168173ffffffffffffffffffffffffffffffffffffffff161415610480576040517f08c379a000000000000000000000000000000000000000000000000000000000815260040161047790610e0f565b60405180910390fd5b33826060019073ffffffffffffffffffffffffffffffffffffffff16908173ffffffffffffffffffffffffffffffffffffffff168152505060018260800190151590811515815250508160026000858152602001908152602001600020600082015181600001556020820151816001019080519060200190610503929190610b60565b506040820151816002015560608201518160030160006101000a81548173ffffffffffffffffffffffffffffffffffffffff021916908373ffffffffffffffffffffffffffffffffffffffff16021790555060808201518160030160146101000a81548160ff0219169083151502179055509050508073ffffffffffffffffffffffffffffffffffffffff166108fc349081150290604051600060405180830381858888f193505050501580156105be573d6000803e3d6000fd5b507f79558d0d7d4d900e2f15c4cc0a665f1acdbe415e44de900ecdd1e5bf12b56f4e60015483602001518460400151336001604051610601959493929190610e4a565b60405180910390a1505050565b600260205280600052604060002060009150905080600001549080600101805461063790610fa0565b80601f016020809104026020016040519081016040528092919081815260200182805461066390610fa0565b80156106b05780601f10610685576101008083540402835291602001916106b0565b820191906000526020600020905b81548152906001019060200180831161069357829003601f168201915b5050505050908060020154908060030160009054906101000a900473ffffffffffffffffffffffffffffffffffffffff16908060030160149054906101000a900460ff16905085565b60015481565b61073d6040518060400160405280601681526020017f6372656174652070726f647563742066756e632e2e2e00000000000000000000815250610966565b61077c6040518060400160405280600e81526020017f4e616d6520696e2066756e633a2000000000000000000000000000000000000081525083610a9b565b6107bb6040518060400160405280600f81526020017f507269636520696e2066756e633a200000000000000000000000000000000000815250826109ff565b60008251116107c957600080fd5b600081116107d657600080fd5b600160008154809291906107e990611003565b91905055506040518060a0016040528060015481526020018381526020018281526020013373ffffffffffffffffffffffffffffffffffffffff1681526020016000151581525060026000600154815260200190815260200160002060008201518160000155602082015181600101908051906020019061086b929190610b60565b506040820151816002015560608201518160030160006101000a81548173ffffffffffffffffffffffffffffffffffffffff021916908373ffffffffffffffffffffffffffffffffffffffff16021790555060808201518160030160146101000a81548160ff0219169083151502179055509050507fbc59c0c8165864dcceb377dd07d8f431d4303f8e501cb0a0374a10cc68d71836600154838333600060405161091a959493929190610e4a565b60405180910390a15050565b6109646040518060400160405280601781526020017f74686973206973206120746573742066756e6374696f6e000000000000000000815250610966565b565b6109fc8160405160240161097a9190610d86565b6040516020818303038152906040527f41304fac000000000000000000000000000000000000000000000000000000007bffffffffffffffffffffffffffffffffffffffffffffffffffffffff19166020820180517bffffffffffffffffffffffffffffffffffffffffffffffffffffffff8381831617835250505050610b37565b50565b610a978282604051602401610a15929190610ddf565b6040516020818303038152906040527f9710a9d0000000000000000000000000000000000000000000000000000000007bffffffffffffffffffffffffffffffffffffffffffffffffffffffff19166020820180517bffffffffffffffffffffffffffffffffffffffffffffffffffffffff8381831617835250505050610b37565b5050565b610b338282604051602401610ab1929190610da8565b6040516020818303038152906040527f4b5c4277000000000000000000000000000000000000000000000000000000007bffffffffffffffffffffffffffffffffffffffffffffffffffffffff19166020820180517bffffffffffffffffffffffffffffffffffffffffffffffffffffffff8381831617835250505050610b37565b5050565b60008151905060006a636f6e736f6c652e6c6f679050602083016000808483855afa5050505050565b828054610b6c90610fa0565b90600052602060002090601f016020900481019282610b8e5760008555610bd5565b82601f10610ba757805160ff1916838001178555610bd5565b82800160010185558215610bd5579182015b82811115610bd4578251825591602001919060010190610bb9565b5b509050610be29190610be6565b5090565b5b80821115610bff576000816000905550600101610be7565b5090565b6000610c16610c1184610ec9565b610ea4565b905082815260208101848484011115610c2e57600080fd5b610c39848285610f5e565b509392505050565b600082601f830112610c5257600080fd5b8135610c62848260208601610c03565b91505092915050565b600081359050610c7a81611113565b92915050565b60008060408385031215610c9357600080fd5b600083013567ffffffffffffffff811115610cad57600080fd5b610cb985828601610c41565b9250506020610cca85828601610c6b565b9150509250929050565b600060208284031215610ce657600080fd5b6000610cf484828501610c6b565b91505092915050565b610d0681610f16565b82525050565b610d1581610f28565b82525050565b6000610d2682610efa565b610d308185610f05565b9350610d40818560208601610f6d565b610d49816110d9565b840191505092915050565b6000610d61601b83610f05565b9150610d6c826110ea565b602082019050919050565b610d8081610f54565b82525050565b60006020820190508181036000830152610da08184610d1b565b905092915050565b60006040820190508181036000830152610dc28185610d1b565b90508181036020830152610dd68184610d1b565b90509392505050565b60006040820190508181036000830152610df98185610d1b565b9050610e086020830184610d77565b9392505050565b60006020820190508181036000830152610e2881610d54565b9050919050565b6000602082019050610e446000830184610d77565b92915050565b600060a082019050610e5f6000830188610d77565b8181036020830152610e718187610d1b565b9050610e806040830186610d77565b610e8d6060830185610cfd565b610e9a6080830184610d0c565b9695505050505050565b6000610eae610ebf565b9050610eba8282610fd2565b919050565b6000604051905090565b600067ffffffffffffffff821115610ee457610ee36110aa565b5b610eed826110d9565b9050602081019050919050565b600081519050919050565b600082825260208201905092915050565b6000610f2182610f34565b9050919050565b60008115159050919050565b600073ffffffffffffffffffffffffffffffffffffffff82169050919050565b6000819050919050565b82818337600083830152505050565b60005b83811015610f8b578082015181840152602081019050610f70565b83811115610f9a576000848401525b50505050565b60006002820490506001821680610fb857607f821691505b60208210811415610fcc57610fcb61107b565b5b50919050565b610fdb826110d9565b810181811067ffffffffffffffff82111715610ffa57610ff96110aa565b5b80604052505050565b600061100e82610f54565b91507fffffffffffffffffffffffffffffffffffffffffffffffffffffffffffffffff8214156110415761104061104c565b5b600182019050919050565b7f4e487b7100000000000000000000000000000000000000000000000000000000600052601160045260246000fd5b7f4e487b7100000000000000000000000000000000000000000000000000000000600052602260045260246000fd5b7f4e487b7100000000000000000000000000000000000000000000000000000000600052604160045260246000fd5b6000601f19601f8301169050919050565b7f43616e27742042757920796f7572206f776e2070726f64756374210000000000600082015250565b61111c81610f54565b811461112757600080fd5b5056fea264697066735822122056c030450b87ff84a002d2548741f4f0497de1e543a10e665d9c20f5015f4c9564736f6c63430008040033",
  "linkReferences": {},
  "deployedLinkReferences": {}
}